S0180000456C6563745F5761745F4865617465722E73726563DC
S11300000C942A000C9447000C9447000C9447006D
S11300100C944A0B0C94BF0A0C9447000C94780976
S11300200C9447000C9401090C94A9080C94E7075C
S11300300C9447000C9447000C9447000C94470020
S11300400C9447000C9447000C9447000C94470010
S11300500C94470011241FBECFE5D8E0DEBFCDBF0E
S113006010E0A0E6B0E0E0E1F8E102C005900D92F6
S1130070A037B107D9F720E0A0E7B0E001C01D9296
S1130080A13AB207E1F70E943F050C94060C0C94C8
S11300900000DC0180E040E012C0FD01E40FF11D2E
S11300A0208190E009C0382F3227869530FF02C0A6
S11300B03CE8832726959F5F9830A8F34F5F461747
S11300C060F308958F929F92AF92BF92CF92DF9286
S11300D0EF92FF920F931F93CF93DF937C016B01F9
S11300E05A01D22F4801012B21F40CEC0E94510239
S11300F012C005E50E945102C0E00BC0F401EC0FF0
S1130100F11D00812D2FA501B601C7010E945102E6
S1130110CF5FC83098F3DF91CF911F910F91FF907B
S1130120EF90DF90CF90BF90AF909F908F90089505
S1130130BF92CF92DF92EF92FF920F931F93CF93D0
S1130140DF93EC017B016A01B22E0E94E20181304F
S113015071F02B2DA601B701CE010E94620004E4C8
S11301602B2DA601B701CE010E94510280E0DF9140
S1130170CF911F910F91FF90EF90DF90CF90BF90A0
S113018008958F929F92AF92BF92CF92DF92EF9297
S1130190FF920F931F93CF93DF936C015B014A018E
S11301A0D22F0E94E2018130D9F12D2FA401B50193
S11301B0C6010E9462000EEB2D2FA401B501C601F9
S11301C00E945102C0E00CC087010C0F111D2D2F9D
S11301D0A401B501C6010E94A302F8018083CF5F88
S11301E0C93090F3F7017081818162815381448128
S11301F0358126819781872B862B852B842B832B16
S1130200822B892B51F068E0C7010E944900F70155
S11302109085891721F082E003C083E001C080E06B
S1130220DF91CF911F910F91FF90EF90DF90CF90CE
S1130230BF90AF909F908F900895CF92DF92EF92EE
S1130240FF920F931F93CF93DF93CDB7DEB7299718
S11302500FB6F894DEBF0FBECDBF6701FE01319625
S11302607F010E94C100882321F0F60111821082CF
S113027014C08A8190E0982F88272981820F911DCC
S11302809595879595958795959587959595879552
S11302909927F6019183808380E029960FB6F8941C
S11302A0DEBF0FBECDBFDF91CF911F910F91FF90A5
S11302B0EF90DF90CF9008950E949E0108951F93C0
S11302C0CF93DF93162FD42F883008F087E0C82F00
S11302D0C0650E94A6018C2F0E94B201812F0E944A
S11302E0CE018D2F0E94CE010E94DC018FE39CE998
S11302F00197F1F700C00000DF91CF911F9108959D
S1130300CF93DF93D62F883008F087E0C82FC065DD
S11303100E94A6018C2F0E94B2018D2F0E94CE0153
S11303200E94AC018C2F0E94C3010E94D501C82FEA
S11303300E94DC018C2FDF91CF91089580E88FBF5C
S113034084E086BF8CE080B911B8089584EA86BF42
S113035006B607FEFDCF089584EA86BF06B607FEFB
S1130360FDCF0895880F83B984E886BF06B607FEDB
S1130370FDCF2FEF81EE94E0215080409040E1F7D3
S113038000C00000089590E0880F991F816083B930
S113039084E886BF06B607FEFDCF089583B984E8D6
S11303A086BF06B607FEFDCF089584E886BF06B66D
S11303B007FEFDCF83B1089584E986BF86B78068C0
S11303C086BF0895CF93DF93DC01FB013FB78C9187
S11303D0822B8C938081822B80839C91822F8095A9
S11303E098239C93CFE5D9E02197F1F700C0000052
S11303F090818923808387E191E00197F1F700C020
S11304000000EA0198819223CFE1D3E02197F1F72C
S113041000C000008C91822B8C938081282B208338
S1130420EFE5F9E03197F1F700C000003FBF81E04C
S1130430911101C080E0DF91CF9108950F93FC01E9
S11304409FB78081822B8083DB018C91822B8C93DC
S11304508081322F309583238083002329F0BAE2F0
S1130460BA95F1F700C006C0AFE3B1E01197F1F718
S113047000C000008081282B2083002339F0EFE3A3
S1130480F1E03197F1F700C0000004C0FAE0FA95FA
S1130490F1F700C09FBF81E0011101C080E00F911E
S11304A008959F92AF92BF92CF92DF92EF92FF9204
S11304B00F931F93CF93DF935C016B017A01122F8B
S11304C0D02F9FB6C1E009C00C2F0D23212FA70107
S11304D0B601C5010E941E02CC0FC111F5CF9FBE0B
S11304E0DF91CF911F910F91FF90EF90DF90CF900C
S11304F0BF90AF909F900895DC01FB013FB78C91B2
S1130500822B8C938081822B80838C91922F909567
S113051089238C938AE08A95F1F700C0808198231F
S11305209083EAE1EA95F1F700C0FA01808128237B
S113053081E009F480E0EFEEF0E03197F1F700C0DC
S113054000003FBF0895AF92BF92CF92DF92EF9227
S1130550FF920F931F93CF93DF935C016B017A019A
S1130560122F0FB7C1E0D0E00BC0212FA701B601B5
S1130570C5010E947C028C9FC0011124D82BCC0F92
S1130580C111F3CF0FBF8D2FDF91CF911F910F9129
S1130590FF90EF90DF90CF90BF90AF9008954FEF12
S11305A064E080E00E9440034FEF65E080E00E9439
S11305B040034FEF66E080E00E9440034FEF67E0A6
S11305C080E00E9440034FEF65E081E00E94400319
S11305D04FEF66E081E00E94400340E062E081E08A
S11305E00E94D60340E061E081E00E94D6030895B2
S11305F0CF9360E081E00E94DE04C82F60E081E0D8
S11306000E94DE048111FACF2FEF89EF90E0215090
S113061080409040E1F700C000008C2FCF910895F6
S1130620CF9366E083E00E94DE04C82F66E083E097
S11306300E94DE048111FACF2FEF89EF90E0215060
S113064080409040E1F700C000008C2FCF910895C6
S1130650CF9362E083E00E94DE04C82F62E083E06F
S11306600E94DE048111FACF2FEF89EF90E0215030
S113067080409040E1F700C000008C2FCF91089596
S1130680442321F04F3F09F44BC008956830C0F56E
S1130690813091F028F08230D9F0833029F1089527
S11306A02AB381E090E002C0880F991F6A95E2F7AF
S11306B0809582238ABB089527B381E090E002C02D
S11306C0880F991F6A95E2F78095822387BB089566
S11306D024B381E090E002C0880F991F6A95E2F785
S11306E08095822384BB089521B381E090E002C009
S11306F0880F991F6A95E2F78095822381BB08953C
S1130700813041F028F0823039F0833039F0089597
S11307104ABB089547BB089544BB089541BB08955F
S11307206830A0F5813089F028F08230C9F0833038
S113073011F108952AB381E090E002C0880F991F57
S11307406A95E2F7822B8ABB089527B381E090E093
S113075002C0880F991F6A95E2F7822B87BB089520
S113076024B381E090E002C0880F991F6A95E2F7F4
S1130770822B84BB089521B381E090E002C0880FEE
S1130780991F6A95E2F7822B81BB0895813041F06D
S113079028F0823039F0833039F008954ABB089547
S11307A047BB089544BB089541BB08951F93CF935D
S11307B0DF93C82F162FD42F442321F04F3F09F481
S11307C052C09DC06830D8F54FEF0E944003C1303D
S11307D091F028F0C230D9F0C33029F190C02BB386
S11307E081E090E002C0880F991F1A95E2F7809586
S11307F082238BBB84C028B381E090E002C0880FC1
S1130800991F1A95E2F78095822388BB78C025B397
S113081081E090E002C0880F991F1A95E2F7809555
S1130820822385BB6CC022B381E090E002C0880FB4
S1130830991F1A95E2F78095822382BB60C04FEF1F
S113084068E00E944003C13041F028F0C23039F022
S1130850C33039F054C0DBBB52C0D8BB50C0D5BB89
S11308604EC0D2BB4CC06830B8F54FEF0E94400375
S1130870C13089F028F0C230C9F0C33011F13FC053
S11308802BB381E090E002C0880F991F1A95E2F71C
S1130890822B8BBB34C028B381E090E002C0880F68
S11308A0991F1A95E2F7822B88BB29C025B381E0F2
S11308B090E002C0880F991F1A95E2F7822B85BB3E
S11308C01EC022B381E090E002C0880F991F1A95E0
S11308D0E2F7822B82BB13C04FEF68E00E94400313
S11308E0C13041F028F0C23039F0C33039F007C0CC
S11308F0DBBB05C0D8BB03C0D5BB01C0D2BBDF91F5
S1130900CF911F910895CF93DF93C82FD62F6830CE
S1130910B8F54FEF0E944003C13089F028F0C2308F
S1130920C9F0C33011F147C02BB381E090E002C09D
S1130930880F991FDA95E2F782278BBB3CC028B356
S113094081E090E002C0880F991FDA95E2F78227D0
S113095088BB31C025B381E090E002C0880F991FA5
S1130960DA95E2F7822785BB26C022B381E090E0C6
S113097002C0880F991FDA95E2F7822782BB1BC059
S11309804FEF68E00E944003C13051F028F0C230BC
S113099059F0C33069F00FC08BB380958BBB0BC08B
S11309A088B3809588BB07C085B3809585BB03C099
S11309B082B3809582BBDF91CF910895CF93DF936B
S11309C0C82FD62F683078F540E00E944003C1302C
S11309D079F028F0C230A9F0C330E1F038C089B30F
S11309E090E002C095958795DA95E2F7817032C060
S11309F086B390E002C095958795DA95E2F7817009
S1130A0029C083B390E002C095958795DA95E2F703
S1130A10817020C080B390E002C095958795DA95E7
S1130A20E2F7817017C040E068E00E944003C130E3
S1130A3041F028F0C23039F0C33039F00AC089B32C
S1130A4009C086B307C083B305C080B303C080E088
S1130A5001C080E0DF91CF9108954FEF62E082E022
S1130A600E94D603089540E062E082E00E94D6032B
S1130A70089540E067E082E00E94D6030895CF9392
S1130A80DF93CDB7DEB764970FB6F894DEBF0FBE21
S1130A90CDBF40E063E082E00E94D60340E064E022
S1130AA082E00E94D6030E9433050E94CF020E9476
S1130AB05C010E9407076AE070E080E090E00E9419
S1130AC019070E9414070E94E50964E670E080E0BB
S1130AD090E00E94F10960E281E00E948001D82E3A
S1130AE0C12C812C912CA12CB12C0E942803813083
S1130AF021F4809172008F5F02C080917200809314
S1130B00720080FF66C180916200882309F4E1C00D
S1130B10B1100BC081E08093610082E0809360009B
S1130B200E941407A12CBB24B39400E010E021E040
S1130B3049E350E06AE370E08BE390E00E949800A0
S1130B402FEF41EE54E0215040405040E1F700C007
S1130B5000000F2EF0E7EF2EF0E0FF2EF02D21E045
S1130B6049E350E06AE370E08BE390E00E941D01EA
S1130B70F401EE0FFF1F81E090E08C0F9D1FE80F42
S1130B80F91F8091700090917100918380839FEF91
S1130B90891A990A2AE0821691040CF45FC029810B
S1130BA03A818B819C81820F931F2D813E81820F1C
S1130BB0931F2F813885820F931F29853A85820FD1
S1130BC0931F2B853C85820F931F2D853E85820FB5
S1130BD0931F2F853889820F931F29893A89820FA1
S1130BE0931F2B893C89820F931F6AE070E00E9457
S1130BF0A20BC62E8DEC689F812D112486958695B7
S1130C008695282F220F922F990F990F920F691B07
S1130C10609373008093740020E019C0822F90E0E9
S1130C20FC013196EE0FFF1F41E050E04C0F5D1FB9
S1130C30E40FF51F40815181880F991FE1E0F0E036
S1130C40EC0FFD1FE80FF91F518340832F5F2930FC
S1130C5028F30F2EF9E08F2E912CF02DCD1468F48B
S1130C600E94EC0940E063E082E00E94D6034FEF6B
S1130C7064E082E00E94D60321C0DC1478F40E9470
S1130C80EF094FEF63E082E00E94D60340E064E0A6
S1130C9082E00E94D6030E942D0510C00E94EF0935
S1130CA040E063E082E00E94D60340E064E082E03A
S1130CB00E94D6030E9433050E9439050E94F8025F
S1130CC0182F0E941003812B09F40FCF1092620099
S1130CD00CCFA11019C010928800109287001092B6
S1130CE061000E94EC090E9433050E94390540E02E
S1130CF063E082E00E94D60340E064E082E00E9468
S1130D00D603AA24A394B12C8DECD89E812D112452
S1130D10869586958695282F220F922F990F990FE5
S1130D20920F5D2D591B50937300809374000E94A1
S1130D30F802882321F110928800109287008D2DEB
S1130D4090E00597839714F08BEFD80E8DECD89E26
S1130D50812D1124869586958695282F220F922F12
S1130D60990F990F920F2D2D291B209373008093B7
S1130D7074004D2D60E281E00E945F01B6CE0E94B6
S1130D801003882309F4B1CE1092880010928700D2
S1130D908D2D90E005968C34910514F445E0D40E25
S1130DA08DECD89E812D1124869586958695282FC5
S1130DB0220F922F990F990F920F5D2D591B50936B
S1130DC07300809374004D2D60E281E00E945F0106
S1130DD08CCE81E0809362000E94EF0940E061E0E4
S1130DE081E00E94D60340E062E081E00E94D603E5
S1130DF00E9433050E94390540E063E082E00E94CE
S1130E00D60340E064E082E00E94D6036ECE80E820
S1130E108FBF83B7877F83BF83B78F7B83BF89B738
S1130E20847D816089BF089583B78877856083BF97
S1130E3008954F925F926F927F928F929F92AF929A
S1130E40BF92CF92DF92EF92FF921F93CF93DF93E3
S1130E509B01AC01A8EEB3E00E94D80B2B013C012E
S1130E604B015C01689415F8B694A7949794879401
S1130E701694D1F781E088169806A104B10408F00D
S1130E804FC080E091E0A0E0B0E088199909AA0978
S1130E90BB0980939D0090939E00A0939F00B09304
S1130EA0A00082BF84C0C501B401A70196010E94BD
S1130EB0B60BE22FD32FC42FF52FA22FB0E0A7013A
S1130EC096010E94D80B86169706A806B90611F556
S1130ED0E0936B00D0936C00C0936D00F0936E00B0
S1130EE080E091E0A0E0B0E08C199D09AE09BF0953
S1130EF080939D0090939E00A0939F00B093A000C8
S1130F008093910090939200A0939300B0939400E7
S1130F1082BF10E08FEFC81AD80AE80AF80A08C09E
S1130F200F2EF2E8CF2ED12CE12CF12CF02D11E074
S1130F3081E0C816D806E104F10408F4B4CF112303
S1130F40B1F1032E3EE076946794579447943A9512
S1130F50D1F7302D80916B0090916C00A0916D00C1
S1130F60B0916E00480E591E6A1E7B1E40926B00A3
S1130F7050926C0060926D0070926E0080E091E07F
S1130F80A0E0B0E088199109A109B10980939D00FE
S1130F9090939E00A0939F00B093A00010929100A4
S1130FA010929200109293001092940082BFDF91ED
S1130FB0CF911F91FF90EF90DF90CF90BF90AF90B3
S1130FC09F908F907F906F905F904F9008951F92A5
S1130FD00F920FB60F9211242F933F934F935F9369
S1130FE06F937F938F939F93AF93BF93EF93FF93ED
S1130FF0809185009091860001969093860080935D
S1131000850020918300309184002F5F3F4F3093FF
S113101084002093830040916B0050916C00609198
S11310206D0070916E00413051056105710509F044
S113103068C0092E000CAA0BBB0B481759076A0796
S11310407B0709F075C08091810090918200019620
S113105090938200809381004091610041110BC004
S113106064E670E00E94A20B892B29F48091600051
S11310708F5F809360008091720080FF3AC08091FE
S1131080600080FD2CC020FD15C040E062E081E0DE
S11310900E94D6038091730020E1829FC001112435
S11310A09BB39F70892B8BBB4FEF61E081E00E9463
S11310B0D6031FC040E061E081E00E94D603809126
S11310C0740020E1829FC00111249BB39F70892B7F
S11310D08BBB4FEF62E081E00E94D6030AC040E080
S11310E061E081E00E94D60340E062E081E00E947A
S11310F0D603109286001092850080919D0082BFD5
S113110017C08130910521F48091910082BF10C0F5
S1131110092E000CAA0BBB0B481759076A077B075B
S113112039F4109286001092850080919D0082BF50
S1131130FF91EF91BF91AF919F918F917F916F91AB
S11311405F914F913F912F910F900FBE0F901F9081
S113115018951F920F920FB60F9211244F935F931D
S11311606F937F938F939F93AF93BF9380917F00EF
S11311709091800001969093800080937F0040912D
S11311806B0050916C0060916D0070916E00413065
S113119051056105710589F4092E000CAA0BBB0BDE
S11311A0481759076A077B07F9F4109280001092D8
S11311B07F0080919D008CBF17C08130910521F480
S11311C0809191008CBF10C0092E000CAA0BBB0BA0
S11311D0481759076A077B0739F410928000109268
S11311E07F0080919D008CBFBF91AF919F918F91A3
S11311F07F916F915F914F910F900FBE0F901F9051
S113120018951F920F920FB60F9211242F933F93AC
S11312104F935F936F937F938F939F93AF93BF93FA
S1131220EF93FF9380917D0090917E0001969093BF
S11312307E0080937D0020917B0030917C002F5FA5
S11312403F4F30937C0020937B0040916700509186
S113125068006091690070916A0041305105610530
S11312607105C1F4092E000CAA0BBB0B48175907D2
S11312706A077B0761F563E083E00E9483041092B0
S11312807E0010927D0080918D0090918E009DBD16
S11312908CBD1DC08130910539F4809189009091F5
S11312A08A009DBD8CBD13C0092E000CAA0BBB0B7C
S11312B0481759076A077B0751F410927E00109271
S11312C07D0080918D0090918E009DBD8CBDFF911D
S11312D0EF91BF91AF919F918F917F916F915F91AA
S11312E04F913F912F910F900FBE0F901F90189523
S11312F01F920F920FB60F9211242F933F934F9387
S11313005F936F937F938F939F93AF93BF93EF9369
S1131310FF938091790090917A00019690937A00DE
S11313208093790040916700509168006091690052
S113133070916A004130510561057105C1F4092EAF
S1131340000CAA0BBB0B481759076A077B0761F50A
S113135063E083E00E94830410927A001092790083
S113136080918D0090918E009BBD8ABD1DC08130FF
S1131370910539F48091890090918A009BBD8ABDC2
S113138013C0092E000CAA0BBB0B481759076A0798
S11313907B0751F410927A001092790080918D00AD
S11313A090918E009BBD8ABDFF91EF91BF91AF914B
S11313B09F918F917F916F915F914F913F912F9169
S11313C00F900FBE0F901F90189580E88FBF89B7BC
S11313D08771806489BF089587E085BD089515BC31
S11313E008954F925F926F927F928F929F92AF92E5
S11313F0BF92CF92DF92EF92FF921F93CF93DF932E
S11314009B01AC01A8EEB3E00E94D80B2B013C0178
S11314104B015C01689415F8B694A794979487944B
S11314201694D1F781E088169806A104B10408F057
S11314304FC080E091E0A0E0B0E088199909AA09C2
S1131440BB098093990090939A00A0939B00B0935A
S11314509C0084BD84C0C501B401A70196010E940B
S1131460B60BE22FD32FC42FF52FA22FB0E0A70184
S113147096010E94D80B86169706A806B90611F5A0
S1131480E0936300D0936400C0936500F09366001A
S113149080E091E0A0E0B0E08C199D09AE09BF099D
S11314A08093990090939A00A0939B00B0939C0022
S11314B08093950090939600A0939700B093980022
S11314C084BD10E08FEFC81AD80AE80AF80A08C0E9
S11314D00F2EF2E8CF2ED12CE12CF12CF02D11E0BF
S11314E081E0C816D806E104F10408F4B4CF11234E
S11314F0B1F1032E3EE076946794579447943A955D
S1131500D1F7302D8091630090916400A091650023
S1131510B0916600480E591E6A1E7B1E40926300FD
S113152050926400609265007092660080E091E0E1
S1131530A0E0B0E088199109A109B109809399004C
S113154090939A00A0939B00B0939C0010929500F6
S113155010929600109297001092980084BDDF912B
S1131560CF911F91FF90EF90DF90CF90BF90AF90FD
S11315709F908F907F906F905F904F9008951F92EF
S11315800F920FB60F9211242F933F934F935F93B3
S11315906F937F938F939F93AF93BF93EF93FF9337
S11315A080917700909178000196909378008093D1
S11315B077004091630050916400609165007091E0
S11315C06600413051056105710591F4092E000C46
S11315D0AA0BBB0B481759076A077B0709F049C0D8
S11315E010927800109277008091990084BD41C0D8
S11315F08130910521F48091950084BD3AC0092E73
S1131600000CAA0BBB0B481759076A077B0789F51F
S113161020918700309188002F5F3F4F30938800DE
S113162020938700C90166E070E00E94A20B892B19
S113163049F480916100813029F462E082E00E94E3
S1131640830410C0C9016EE170E00E94A20B892BD3
S113165049F480916100811105C081E080936200AA
S11316600E94EF09109278001092770080919900FF
S113167084BDFF91EF91BF91AF919F918F917F9125
S11316806F915F914F913F912F910F900FBE0F90EB
S11316901F9018951F920F920FB60F9211244F931B
S11316A05F936F937F938F939F93AF93BF93809137
S11316B07500909176000196909376008093750062
S11316C040916300509164006091650070916600E0
S11316D0413051056105710589F4092E000CAA0BEE
S11316E0BB0B481759076A077B07F9F41092760079
S11316F0109275008091990083BD17C081309105C7
S113170021F48091950083BD10C0092E000CAA0B12
S1131710BB0B481759076A077B0739F41092760008
S1131720109275008091990083BDBF91AF919F91F4
S11317308F917F916F915F914F910F900FBE0F909A
S11317401F90189597FB072E16F4009407D077FD89
S113175009D00E94E30B07FC05D03EF490958195D7
S11317609F4F0895709561957F4F0895A1E21A2EB9
S1131770AA1BBB1BFD010DC0AA1FBB1FEE1FFF1F31
S1131780A217B307E407F50720F0A21BB30BE40B81
S1131790F50B661F771F881F991F1A9469F76095C8
S11317A07095809590959B01AC01BD01CF01089582
S11317B00E94F70BA59F900DB49F900DA49F800DE0
S11317C0911D11240895AA1BBB1B51E107C0AA1F38
S11317D0BB1FA617B70710F0A61BB70B881F991FCE
S11317E05A95A9F780959095BC01CD010895A29FC3
S11317F0B001B39FC001A39F700D811D1124911DE1
S1131800B29F700D811D1124911D0895F894FFCF8E
S113181002010101000000010000000100000000BD
S9030000FC
